:020000040800F2
:1000000040070020CD010008BF0F0008290F00089D
:10001000BD0F0008CF020008E1100008000000003A
:10002000000000000000000000000000C30F0008F6
:10003000E902000800000000C10F0008C50F000819
:10004000E7010008E7010008E7010008E7010008F0
:10005000E7010008E7010008E7010008E7010008E0
:10006000E7010008E7010008E7010008E7010008D0
:10007000E7010008E7010008D1020008DD020008DE
:10008000E7010008E7010008E7010008E7010008B0
:10009000E7010008E7010008E7010008E7010008A0
:1000A000E7010008E7010008E7010008E701000890
:1000B000E7010008E7010008E7010008E701000880
:1000C000E7010008E7010008E7010008E701000870
:1000D000E7010008E7010008E7010008E701000860
:1000E000E7010008E7010008E7010008E701000850
:1000F000E7010008E7010008E7010008E701000840
:10010000E7010008E7010008E7010008E70100082F
:10011000E7010008E7010008E7010008E70100081F
:10012000E7010008E7010008E7010008E70100080F
:1001300000F002F800F03AF80AA090E8000C8244BF
:100140008344AAF10107DA4501D100F02FF8AFF29C
:10015000090EBAE80F0013F0010F18BFFB1A43F0A5
:1001600001031847CC0F0000EC0F0000103A24BF29
:1001700078C878C1FAD8520724BF30C830C144BF0C
:1001800004680C607047000000230024002500264E
:10019000103A28BF78C1FBD8520728BF30C148BFEA
:1001A0000B6070471FB51FBD10B510BD00F058F8AB
:1001B0001146FFF7F7FF00F0A4FF00F076F803B454
:1001C000FFF7F2FF03BC00F07BF80000094880470E
:1001D00009480047FEE7FEE7FEE7FEE7FEE7FEE729
:1001E000FEE7FEE7FEE7FEE704480549054A064B41
:1001F000704700002710000831010008400100206E
:100200004007002040030020400300204FF0000280
:1002100000B5134694469646203922BFA0E80C50FC
:10022000A0E80C50B1F12001BFF4F7AF090728BFD7
:10023000A0E80C5048BF0CC05DF804EB890028BF53
:1002400040F8042B08BF704748BF20F8022B11F07C
:10025000804F18BF00F8012B7047704770477047F8
:10026000754600F029F8AE4605006946534620F071
:100270000700854618B020B5FFF7B6FFBDE820405F
:100280004FF000064FF000074FF000084FF0000B52
:1002900021F00701AC46ACE8C009ACE8C009ACE805
:1002A000C009ACE8C0098D4670470446AFF3008032
:1002B0002046FFF784FF000000487047DC00002064
:1002C00001491820ABBEFEE7260002007047FEE79A
:1002D000014800F00DB8000098000020014800F02F
:1002E00007B8000054000020704772B6FEE7000017
:1002F0002DE9F05FC16B0A6801680B68046C4FF070
:10030000040808FA04F8844D844E854FDFF814C2BF
:10031000DFF81492DFF814A2DFF814B2DFF814E269
:1003200018EA020F65D05FEA437862D50A68920640
:1003300003D40A6822F004020A60DFF8F0814FF467
:100340008062016808F1140813011402414524D9A0
:10035000A9420DD0B1420FD0B9421AD0614515D093
:10036000494515D0514501D1120312E0594501D13B
:1003700004220EE0714501D140220AE06D4D143592
:10038000A94206D06B4A2832914201D11A4600E0B8
:1003900022466749091F0A6029E0A94213D0B142E9
:1003A00015D0B94220D061451BD049451BD05145DD
:1003B00002D14FF4800217E0414502D14FF0806234
:1003C00012E0594501D104220EE0714501D14022CD
:1003D0000AE0584D1435A94206D0564A28329142B7
:1003E00001D11A4600E022464B4908394A60C16AE9
:1003F00071E04FF0020808FA04F818EA020F70D012
:100400005FEA83786DD50A68920606D40A6822F0FE
:100410000A020A60012180F82110DFF810814FF4F0
:100420000072016808F1140813011402414524D92F
:10043000A9420DD0B1420FD0B9421AD0614515D0B2
:10044000494515D0514501D1120312E0594501D15A
:1004500002220EE0714501D120220AE0354D14350B
:10046000A94206D0334A2832914201D11A4600E00F
:1004700022462F49091F0A6029E0A94213D0B14240
:1004800015D0B94220D061451BD049451BD05145FC
:1004900002D14FF4001217E0414502D14FF0007233
:1004A00012E0594501D102220EE0714501D120220E
:1004B0000AE0204D1435A94206D01E4A2832914246
:1004C00001D11A4600E02246134908394A6000214A
:1004D00080F82010816A00291CD0BDE8F05F084731
:1004E000FFE70825A540154214D01A0712D50A685F
:1004F00022F00E020A6090F84020C36B012101FA3D
:1005000002F25A60816380F82110002180F82010E7
:10051000016BE0E7BDE8F09F080002401C000240CC
:100520003000024044000240580002406C0002408B
:10053000080402401C04024030B560B11A4B026846
:1005400014219A4209D2194B1344B3FBF1F18900EB
:10055000016417490AE0012030BD134B5B4213448C
:10056000B3FBF1F1890001640F490839C16302212D
:1005700080F82110136843F6F0718B43F0E9011401
:100580002143D0E902452C432143046921434469B6
:1005900021438469214319431160002141630122F1
:1005A00042770177084630BD08040240F8FFFDBFDE
:1005B000000002402DE9F84FDFF8C891002409F14E
:1005C000040A0AF1040B23460F270BF1040ED1E0B5
:1005D0000125A54006EA0502AA4276D1DFF8A8C1A6
:1005E0004E68A6EB0C0866452BD00DDC032E34D0EC
:1005F00005DC36B3012E19D0022E2FD11BE0112EAF
:1006000016D0122E2AD119E0B8F5881F19D006DCB1
:10061000B8F5803F15D0B8F5801F1FD111E0B8F5AF
:10062000001F0ED0B8F5041F18D10AE0CB6815E002
:10063000CB681B1D12E0CB6808330FE0CB680C338E
:100640000CE08B682BB1012B4FF0080303D0456100
:1006500004E0042302E0056100E00023FF2A01D842
:10066000064601E000F104064FEA840501D9A5F130
:100670002005D6F8008007FA05FC28EA0C0803FAE2
:1006800005F548EA0508C6F800804D68ED0070D50C
:100690003E4DAE6946F00106AE61AD6924F0030639
:1006A00005F0010500953A4D06EB050CDCF8085005
:1006B000A607360F07FA06F825EA0805DFF8D48002
:1006C000404503D14FF0000825E052E0DFF8C88034
:1006D000404502D14FF001081DE0DFF8C0804045E1
:1006E00002D14FF0020816E0DFF8B480404502D195
:1006F0004FF003080FE0DFF8AC80404502D14FF027
:10070000040808E0DFF8A080404502D14FF005085A
:1007100001E04FF0060808FA06F848EA0508CCF8A8
:1007200008804D68D9F80060ED034D4601D51643A9
:1007300000E096432E604D68DAF80060AD03554640
:1007400001D5164300E096432E604D68DBF800604B
:10075000ED025D4601D5164300E096432E604D68DC
:10076000DEF80060AD02754601D5164300E0964301
:100770002E60641C0A681646E2407FF429AFBDE88B
:10078000F88F00000004014000001110001002402A
:100790000000014000080140000C01400010014031
:1007A0000014014000180140001C0140014880680D
:1007B0007047000000000020024881680278114460
:1007C0008160704700000020074810B5016841F0C3
:1007D00010010160032000F06DF80F2000F006F812
:1007E00000F024F8002010BD0020024070B50D4D2F
:1007F00004464FF47A712878B1FBF0F00A49096891
:10080000B1FBF0F000F0E4FA48B9102C07D2002256
:100810002146501E00F02EF800206C6070BD0120B3
:1008200070BD0000000000200C000020094808B541
:10083000816941F001018161816901F0010100914B
:10084000C16941F08051C161C06900F080500090E1
:1008500008BD000000100240002809DB00F01F0264
:10086000012191404009800000F1E020C0F8001112
:1008700070470000F0B40E4B1B680C46C3F3022314
:10088000C3F10705042D00D90425191D072901D23C
:10089000002300E0DB1E012606FA05F1491E214077
:1008A00099409E40761E16403143F0BC00F019BCC2
:1008B0000CED00E0064900F0070208684FF6FF0360
:1008C000184040EA0220034A1043086070470000C5
:1008D0000CED00E00000FA052DE9F0470F46050099
:1008E00061D0434E306800F00700B84209D230684A
:1008F00020F0070038433060306800F00700B8424D
:1009000051D128683B4C810712D5400703D5606858
:1009100040F4E06060602878000703D5606840F428
:10092000605060606068A96820F0F0000843606073
:100930002878C00728D06868012810D021680228CC
:1009400010D0890700292EDA616821F003010143E4
:100950006160FFF72BFF804641F288390DE0216886
:100960008903EFE78901EDE7FFF720FFA0EB08011E
:10097000494502D90320BDE8F0876068696800F046
:100980000C00B0EB810FEFD1306800F00700B842E7
:100990000BD9306820F0070038433060306800F031
:1009A0000700B84201D00120E5E72878400705D5C7
:1009B0006068E96820F4E060084360602878000718
:1009C00006D56068296920F4605040EAC100606083
:1009D00000F038F86168084AC1F30311515CC8405F
:1009E0000649086006480068FFF700FF0020C2E7DC
:1009F0000020024000100240181100080C000020E6
:100A0000040000200448054900684968044AC1F30D
:100A10000221515CC84070470C00002000100240C9
:100A2000281100080448054900684968044AC1F3D0
:100A3000C221515CC84070470C00002000100240E9
:100A40002811000812A185B00FC98DE80F0014A06D
:100A5000144A006804905168134801F00C03042BF9
:100A600010D0082B0ED1C1F38343C9031DF8030036
:100A70000AD5516804AAC1F34041515C0A4A504367
:100A8000B0FBF1F005B0704708494843FAE70000B1
:100A900002030405060708090A0B0C0D0E0F1010BF
:100AA000010200000010024000127A0000093D001F
:100AB0002DE9F84F040070D02078C04DC00749D010
:100AC0006868C0F38100012807D06868C0F381001E
:100AD000022809D16868C00306D52868800339D583
:100AE00060680028E7D035E06068B0F5803F0BD043
:100AF00010B1B0F5A02F11D0286820F48030286004
:100B0000286820F4802002E0286840F480302860C3
:100B1000606890B1FFF74AFE06460AE0286840F494
:100B200080202860F0E700BFFFF740FE801B6428AC
:100B300073D828688003F7D50CE0FFF737FE064628
:100B400005E000BFFFF732FE801B6428F0D828685C
:100B50008003F7D420789A4E80074FF001094FF0B8
:100B6000000839D5686810F00C0F07D06868C0F32A
:100B70008100022809D16868C00306D4286880076C
:100B800014D52069012808D110E02069B0B1C6F859
:100B90000090FFF70BFE074605E00AE1FFF706FEAF
:100BA000C01B0228C4D828688007F7D52868616967
:100BB00020F0F80040EAC10028600DE0C6F800808F
:100BC000FFF7F4FD074604E0FFF7F0FDC01B022825
:100BD00023D828688007F7D4207800072CD57948D7
:100BE000A169D9B1C0F80090FFF7E0FD074604E025
:100BF000FFF7DCFDC01B02280FD8686A8007F7D515
:100C000071484FF4FA510068B0FBF1F0009000BF5A
:100C10000098411E0091FAD20EE080E0C0F80080FA
:100C2000FFF7C4FD074604E0FFF7C0FDC01B022824
:100C300075D8686A8007F7D42078400760D5E869DE
:100C40000027C00008D4E86940F08050E861E869F6
:100C5000012700F0805000905C480168C90513D45A
:100C60000168834641F480710160FFF79FFD824671
:100C700006E000BFFFF79AFDA0EB0A0064284ED8FB
:100C8000DBF80000C005F5D5E06801280AD008B1FE
:100C9000052813D0286A20F001002862286A20F075
:100CA000040002E0286A40F001002862E06841F296
:100CB000883B98B1FFF77AFD82460BE0286A40F046
:100CC00004002862EEE700BFFFF770FDA0EB0A0109
:100CD00059455AD8286A8007F6D50CE0FFF766FD1B
:100CE000824605E0FFF762FDA0EB0A0159454CD8AA
:100CF000286A8007F6D41FB1E86920F08050E861C7
:100D0000E06988B36968C1F38101022944D00228EF
:100D1000C6F8608004D0FFF749FD044638E034E0AF
:100D2000FFF744FD074604E0FFF740FDC01B022823
:100D30002BD828688001F7D4206AB0F5803F05D110
:100D40006868A16820F4003008436860D4E90801AD
:100D50000843696821F4741108436860C6F860901C
:100D6000FFF724FD044606E025E000BFFFF71EFD67
:100D7000001B022809D828688001F7D51BE000BFB6
:100D8000FFF714FD001B022802D90320BDE8F88FED
:100D900028688001F4D40EE00128F7D06868226A40
:100DA00000F48031914204D1616A00F470108842ED
:100DB00001D00120EAE70020E8E70000001002402F
:100DC00000004242800442420C00002000700040BB
:100DD00010B5401EB0F1807F01D3012010BD4FF04F
:100DE000E02460610F21601700F07BF90020A06112
:100DF00007202061002010BD70B5040004D094F8D5
:100E00003D00002510B106E0012070BD84F83C5083
:100E1000204600F023F8242084F83D002068C168B3
:100E200021F40051C160204600F0FEF820680169FD
:100E300021F4904101612068416921F02A0141615A
:100E40002068C16841F40051C1602564202084F805
:100E50003D0084F83E00002070BD0000F0B585B074
:100E600000240646009401940294039400682949E2
:100E700088424CD12848816941F48041816181696F
:100E800001F480410491816941F00401816180692C
:100E9000224D00F0040004904FF4007000900220F6
:100EA00001900320039069462846FFF783FB28152D
:100EB000CDE90004694628460294FFF77BFB194DF3
:100EC00017488027C5E90004C5E902472C616C6119
:100ED000AC612846EC61FFF72FFB08B1FFF705FA7C
:100EE000B5636E620F4D0E484435143801C51020AD
:100EF00091C50C4845F8104944306C61AC61EC6117
:100F0000FFF71AFB08B1FFF7F0F975636E6205B0E1
:100F1000F0BD000000380140001002400008014010
:100F20005800024054000020FEE700000D4808B5BC
:100F3000416941F0010141614069002200F0010076
:100F4000009011460E20FFF795FC0E20FFF784FC61
:100F5000002211460F20FFF78DFCBDE808400F204E
:100F6000FFF77ABC00100240054808B5816941F0DE
:100F700004018161806900F00400009008BD000058
:100F8000001002400C4810B50A4901604FF4E131ED
:100F90004160002181600C22C160C0E904128161BE
:100FA000C161FFF729FF002803D0BDE81040FFF71B
:100FB0009CB910BD0038014010000020FEE7FEE79C
:100FC00070477047FFF7F8BB30B58FB028216846EF
:100FD000FFF71CF914210AA8FFF718F901210804EA
:100FE000CDE900100024029402250491CDE90750B8
:100FF0004FF4E01009906846FFF75AFD08B172B649
:10100000FEE70F20CDE90A054FF48060CDE90C40E2
:1010100002210AA80E94FFF75FFC002801D072B6E7
:10102000FEE70FB030BD704770B504460068016937
:10103000E26821F44051114301612169A06808432D
:10104000616908432168CA6841F20C639A4302430C
:10105000CA6020684169A26921F44071114341616D
:101060001E492068884202D1FFF7DCFC01E0FFF74F
:10107000C9FC00EBC00101EB001260686421800034
:10108000B2FBF0F3B3FBF1F36FF018067343B2FB5E
:10109000F0F5B2FBF0F605EB8305322303EB051503
:1010A000B5FBF1F5B6FBF1F605F0F00505EB06151D
:1010B000B2FBF0F6B2FBF0F0B0FBF1F06FF018020B
:1010C000504306EB800003EB0010B0FBF1F0216809
:1010D00000F00F002844886070BD00000038014017
:1010E000FEE70907090E002804DB00F1E02080F884
:1010F0000014704700F00F0000F1E02080F8141D8C
:101100007047FFF761FBFFF75FFFFFF72DFFFFF76A
:101110000DFFFFF737FFFEE70000000000000000B2
:10112000010203040607080900000000010203048D
:101130005011000800000020100000006C010008A1
:10114000601100081000002030070000880100082E
:101150000100000010000000000000000024F40066
:0400000508000131BD
:00000001FF
